S01600004D43555F4750535F4C4F474745522E73726563C1
S11300000C9434000C9449000C9449000C9449005D
S11300100C9449000C9449000C9449000C94490038
S11300200C9449000C9449000C9449000C94490028
S11300300C9449000C9449000C9449000C94490018
S11300400C9449000C9449000C9449000C94490008
S11300500C9449000C9449000C9449000C944900F8
S11300600C9449000C94490011241FBECFEFD8E032
S1130070DEBFCDBF11E0A0E0B1E0EEEEF0E002C0E3
S113008005900D92A030B107D9F70E944B000C9453
S113009075000C9400000E9450000E946900FFCF7C
S11300A088E18093C10086E08093C2001092C5006D
S11300B08CE08093C400E0ECF0E080818260808377
S11300C00895E0ECF0E0908195FFFDCF8093C600A9
S11300D00895CF93C4E18AE00E946100C150D9F72A
S11100E08DE00E946100CF910895F894FFCF47
S9030000FC
