:100000000C9434000C9449000C9449000C94490061
:100010000C9449000C9449000C9449000C9449003C
:100020000C9449000C9449000C9449000C9449002C
:100030000C9449000C9449000C9449000C9449001C
:100040000C9449000C9449000C9449000C9449000C
:100050000C9449000C9449000C9449000C944900FC
:100060000C9449000C94490011241FBECFEFD8E036
:10007000DEBFCDBF12E0A0E0B1E0E2EFF2E002C0EF
:1000800005900D92A834B107D9F70E9448010C944D
:1000900077010C940000F894F999FECF92BD81BDD0
:1000A000F89A80B578940895CF9380E090E00E940C
:1000B0004B00C82F81E090E00E944B002C2F30E0D5
:1000C000322F2227A901482BCA01CF910895CF933F
:1000D000DF93C82F0E9454008C0F911DEC0161E04A
:1000E00070E00E947B0060E070E08D2F0E947B003A
:1000F000DF91CF910895F894F999FECF97B772BD2B
:1001000061BD80BDFA9AF99A81EE94E00197F1F70A
:1001100000C000006230710518F081E00E946700A5
:1001200078940895CF93C82F0E945400BC018C2F5F
:100130000E947B00CF910895CF93DF9380E091E000
:100140000E946801C2E0D0E0BE0180E00E947B0016
:100150002196CF3F83E0D807B9F760E070E080E0F8
:100160000E947B0061E070E082E00E947B0082E3FD
:1001700091E00E946801DF91CF9108951F93CF9382
:10018000DF93162FD42FC22F0E946001812F0E946F
:1001900060018D2F0E9460018C2F0E9460018AE017
:1001A0000E9460018DE00E946001DF91CF911F915C
:1001B00008950F931F93CF93DF9381EE91E00E94F8
:1001C00068018DE591E00E94680124E343E362E366
:1001D00081E30E94BE0081E30E94920082E30E94BC
:1001E000920083E30E94920084E30E94920085E0E3
:1001F00090E00E944B00C82F84E090E00E944B00EA
:10020000D82F83E090E00E944B00182F82E090E00E
:100210000E944B00082F89EF91E00E946801202F77
:10022000412F6D2F8C2F0E94BE0081E60E9492000C
:1002300082E60E94920083E60E94920084E60E9479
:10024000920089E090E00E944B00C82F88E090E087
:100250000E944B00D82F87E090E00E944B00182F9F
:1002600086E090E00E944B00082F80E192E00E941F
:100270006801202F412F6D2F8C2F0E94BE0087E236
:1002800092E00E946801DF91CF911F910F91089534
:100290000E944F010E949C000E94D900FFCF88E17C
:1002A0008093C10086E08093C2001092C5008CE06C
:1002B0008093C400E0ECF0E0808182608083089548
:1002C000E0ECF0E0908195FFFDCF8093C6000895AB
:1002D000CF93DF93EC018881882331F021960E942F
:1002E000600189918111FBCFDF91CF910895F8943E
:0202F000FFCF3E
:1002F200434C454152494E472054484520454550BC
:10030200524F4D2E2054484953204D4947485420BE
:1003120054414B452041205748494C452121210A4F
:100322000D00454550524F4D20434C4541524544E6
:10033200210A0A0D0054455354494E473A20746528
:1003420073745F52575F776F72640A0D004578705D
:100352006563746564206F7574707574203132330F
:10036200343A200052454144494E4720574F5244A7
:100372003A20535543434553530A0D0052454144D5
:10038200494E4720574F52443A204641494C555214
:10039200450A0D00474F543A20000A0D4558504572
:1003A200435445443A2031363930393036300A0D1B
:1003B200005445535420434F4D504C455445443A04
:1003C20020746573745F52575F776F72640A0A0D07
:1003D2000054455354494E473A20746573745F5232
:1003E200575F627974650A0D0045787065637465BC
:1003F20064206F757470757420343332313A200082
:100402004578706563746564206F757470757420C7
:10041200646362613A20005445535420434F4D5067
:100422004C455445443A20746573745F52575F6279
:080432007974650A0A0D00004F
:00000001FF
