S01600004D43555F4750535F4C4F474745522E73726563C1
S11300000C9434000C9449000C9449000C9449005D
S11300100C9449000C9449000C9449000C94490038
S11300200C9449000C9449000C9449000C94490028
S11300300C9449000C9449000C9449000C94490018
S11300400C9449000C9449000C9449000C94490008
S11300500C9449000C9449000C9449000C944900F8
S11300600C9449000C94490011241FBECFEFD8E032
S1130070DEBFCDBF14E0A0E0B1E0E6E5FDE002C0E4
S113008005900D92AC30B107D9F70E9494040C94FA
S1130090A9060C940000F894F999FECF92BD81BD95
S11300A0F89A80B578940895CF92DF92EF92FF92F8
S11300B00F931F93CF93DF938C01C8E1D0E0C12C41
S11300C0D12C7601C8010E944B0090E0A0E0B0E082
S11300D00C2E04C0880F991FAA1FBB1F0A94D2F7C5
S11300E0C82AD92AEA2AFB2A0F5F1F4F2897C83F3C
S11300F08FEFD80739F7C701B601DF91CF911F9170
S11301000F91FF90EF90DF90CF900895CF9380E010
S113011090E00E944B00C82F81E090E00E944B00C9
S11301202C2F30E0322F2227A901482BCA01CF916E
S11301300895CF93DF93C82F0E9486008C0F911DE2
S1130140EC0161E070E00E94AD0060E070E08D2F92
S11301500E94AD00DF91CF9108951F93CF93DF9359
S1130160182FEB01F894CB010E944B00811771F01A
S1130170F999FECF87B7D2BDC1BD10BDFA9AF99ADD
S113018081EE94E00197F1F700C00000249718F085
S113019081E00E9499007894DF91CF911F91089596
S11301A0CF93C82F0E948600BC018C2F0E94AD0003
S11301B0CF910895CF92DF92EF92FF92CF936B018C
S11301C07C01C3E08C2F880F880F880FA70196014C
S11301D004C056954795379527958A95D2F7DA0145
S11301E0C9010E94D000C15068F7CF91FF90EF90F1
S11301F0DF90CF90089582E091E00E948E0560E048
S113020070E080E00E94AD0061E070E084E00E9454
S1130210AD0063E070E080E00E94AD0088E191E011
S11302200E948E0508951F93CF93DF93162FD42F2A
S1130230C22F0E948605812F0E9486058D2F0E9461
S113024086058C2F0E9486058AE00E9486058DE033
S11302500E948605DF91CF911F910895CF93DF937C
S11302600E94FB008DE691E00E948E0585E891E0F6
S11302700E948E0564E073E082E091E00E94DA005F
S1130280C4E0D0E0CE010E944B000E949D0521965F
S1130290C830D105B9F78AE691E00E948E0584E062
S11302A090E00E945400643073408240914029F4ED
S11302B08CE991E00E948E0518C084EB91E00E94C5
S11302C08E058CEC91E00E948E05C4E0D0E0CE0156
S11302D00E944B00805D0E9486052196C830D1059E
S11302E0B1F782ED91E00E948E0589EE91E00E94C3
S11302F08E05DF91CF9108950F931F93CF93DF93D2
S11303000E94FB0089E092E00E948E0585E891E05E
S11303100E948E0524E343E362E381E30E94130118
S113032081E30E94D00082E30E94D00083E30E9414
S1130330D00084E30E94D00087E090E00E944B004C
S1130340C82F86E090E00E944B00D82F85E090E013
S11303500E944B00182F84E090E00E944B00082F6D
S113036081E292E00E948E05202F412F6D2F8C2F69
S11303700E94130181E60E94D00082E60E94D00010
S113038083E60E94D00084E60E94D0008BE090E0D7
S11303900E944B00C82F8AE090E00E944B00D82FA7
S11303A089E090E00E944B00182F88E090E00E94C2
S11303B04B00082F88E392E00E948E05202F412FE6
S11303C06D2F8C2F0E9413018FE492E00E948E0502
S11303D0DF91CF911F910F910895CF93DF93EC019B
S11303E0688179818A819B810E94DA006C817D8198
S11303F08E819F810E94DA0088850E94D0008985C1
S11304000E94D0008A850E94D0008B850E94D00073
S1130410DF91CF910895CF93DF93EC018FE692E0C3
S11304200E948E0582E992E00E948E05688179819E
S11304308A819B810E94A10580EA92E00E948E0538
S11304406C817D818E819F810E94A1058EEA92E05C
S11304500E948E056885062E000C770B880B990B7D
S11304600E94A10588EB92E00E948E056985062E04
S1130470000C770B880B990B0E94A10580EC92E08D
S11304800E948E056A85062E000C770B880B990B4B
S11304900E94A10589EC92E00E948E056B85062ED0
S11304A0000C770B880B990B0E94A1058AE691E05A
S11304B00E948E05DF91CF9108950F931F93CF93E0
S11304C0DF938B0190E0EC01CC0FDD1F8C0F9D1F9F
S11304D0EC01CC0FDD1FCC0FDD1FCE0104960E9472
S11304E05400F8016083718382839383CE0108965C
S11304F00E945400F8016483758386839783CE0138
S11305000C960E944B00F8018087CE010D960E9444
S11305104B00F8018187CE010E960E944B00F80132
S11305208287CE010F960E944B00F8018387DF91EA
S1130530CF911F910F9108950F931F93CF93DF9342
S11305408C01E62FF72F60E070E020E030E0DF015F
S113055090819C3219F42F5F3F4F1BC0241735073D
S113056041F4E801C60FD71F98836F5F7F4F9A014C
S113057008C0421753072CF4F801E60FF71F108246
S11305800AC09C919D3029F4F801E60FF71F1082F0
S113059002C03196DCCFDF91CF911F910F91089566
S11305A04F925F926F927F928F929F92AF92BF927F
S11305B0EF92FF920F931F93CF93DF93CDB7DEB7E4
S11305C0E8970FB6F894DEBF0FBECDBF7C018B0158
S11305D043E050E0CE0101960E949C028981882369
S11305E009F45AC0898B8A818A8B1B8A8B8189A3DF
S11305F08C818AA38E818BA38F818CA388858DA304
S113060089858EA318A644E050E0B801CE01C196B6
S11306100E949C026BED72E0CE01C1960E94980686
S1130620892B29F488248A94982C540104C0812CA1
S1130630912C54018394CE0141960E947A068C0138
S1130640CE0181960E947A0624E6AC01249FC00163
S1130650259F900D11246CE370E00E940E062B017F
S1130660770F66087708D80120E432E44FE050E0C1
S11306700E944F06A3019201260F371F481F591FDE
S1130680C501B4010E94FE05F70160837183828372
S1130690938381E090E002C080E090E0E8960FB69A
S11306A0F894DEBF0FBECDBFDF91CF911F910F91A4
S11306B0FF90EF90BF90AF909F908F907F906F903E
S11306C05F904F9008954F925F926F927F928F92B6
S11306D09F92AF92BF92EF92FF920F931F93CF938B
S11306E0DF93CDB7DEB7E8970FB6F894DEBF0FBE41
S11306F0CDBF7C018B0145E050E0CE0101960E9404
S11307009C028981882309F45CC0898B8A818A8B45
S11307108B818B8B1C8A8C8189A38D818AA38F8189
S11307208BA388858CA389858DA38A858EA319A61E
S113073046E050E0B801CE01C1960E949C026DEDE6
S113074072E0CE01C1960E949806892B29F4882470
S11307508A94982C540104C0812C912C54018394C4
S1130760CE0141960E947A068C01CE0181960E94A8
S11307707A0624E6AC01249FC001259F900D112424
S11307806CE370E00E940E062B01770F6608770871
S1130790D80120E432E44FE050E00E944F06A30168
S11307A09201260F371F481F591FC501B4010E942B
S11307B0FE05F701648375838683978381E090E067
S11307C002C080E090E0E8960FB6F894DEBF0FBE5A
S11307D0CDBFDF91CF911F910F91FF90EF90BF900C
S11307E0AF909F908F907F906F905F904F900895FF
S11307F00F931F93CF93DF93CDB7DEB768970FB6F0
S1130800F894DEBF0FBECDBF8C0149E050E0CE01AD
S113081001960E949C0289818823C1F09B8199875B
S11308209C819A871B86898B8A818A8B1B8ACE013D
S113083009960E947A06F8018087CE0141960E94AB
S11308407A06F801818781E090E002C080E090E0C0
S113085068960FB6F894DEBF0FBECDBFDF91CF917F
S11308601F910F9108950F931F93CF93DF93CDB7EB
S1130870DEB768970FB6F894DEBF0FBECDBF8C010C
S113088041E050E0CE0101960E949C0289818823B8
S1130890C1F089878A818A871B86CE0109960E94C6
S11308A07A06F80182878B81898B8C818A8B1B8ADB
S11308B0CE0141960E947A06F801838781E090E098
S11308C002C080E090E068960FB6F894DEBF0FBED9
S11308D0CDBFDF91CF911F910F9108950F931F9377
S11308E0CF93DF93EC018B010E94D0020097B9F003
S11308F0B801CE010E946303009789F0B801CE01CC
S11309000E94F803009759F0B801CE010E94330405
S113091031E020E0892B09F430E0832F922FDF911E
S1130920CF911F910F9108950E9475050E94F205C1
S11309300E94FB000E949D04FFCF0E940F050E94AD
S11309407C010E942E010E94A6040895CF93DF9398
S1130950CDB7DEB72C970FB6F894DEBF0FBECDBF70
S11309600E94FB008FED92E00E948E0560910001D1
S113097070910101CE0101960E946E04892B49F009
S113098089E093E00E948E05CE0101960E940B023D
S113099004C08AE293E00E948E0587E493E00E94FB
S11309A08E052C960FB6F894DEBF0FBECDBFDF9137
S11309B0CF910895DC01FB0141E050E060E070E07C
S11309C04D935D936D937C93139742E050E060E008
S11309D070E014964D935D936D937C93179783E029
S11309E018968C93189784E019968C93199785E040
S11309F01A968C931A9786E01B968C9387E090E066
S1130A00A0E0B0E080839183A283B3838483958341
S1130A10A683B783808781878287838708950F930E
S1130A201F93CF93DF93CDB7DEB7A4970FB6F89497
S1130A30DEBF0FBECDBF0E94FB008E01075E1F4FBD
S1130A408CE0F80111928A95E9F7BE01635F7F4F4C
S1130A50CE0101960E94DA04CE0101960E94ED01B6
S1130A60CE010D960E94ED01B80180E00E945D0266
S1130A708DED93E00E948E0586EC93E00E948E0536
S1130A80CE0101960E940B0283ED93E00E948E0535
S1130A90C8010E940B028DED93E00E948E05B801FF
S1130AA081E00E945D028AED93E00E948E0586EC4F
S1130AB093E00E948E05CE010D960E940B0283EDF9
S1130AC093E00E948E05C8010E940B028DED93E015
S1130AD00E948E05A4960FB6F894DEBF0FBECDBF5C
S1130AE0DF91CF911F910F91089588E18093C10008
S1130AF086E08093C2001092C5008CE08093C4000D
S1130B00E0ECF0E08081826080830895E0ECF0E026
S1130B10908195FFFDCF8093C6000895CF93DF9316
S1130B20EC018881882331F021960E948605899101
S1130B308111FBCFDF91CF910895805D0E948605DE
S1130B4008954F925F926F927F928F929F92AF928D
S1130B50BF92CF92DF92EF92FF92CF93DF932B015C
S1130B603C0120E03AEC4AE95BE30E942206822F32
S1130B700E949D05C9E0D0E00F2EC12CFAECDF2EB7
S1130B80FAE9EF2EFBE3FF2EF02D0F2EFAE08F2E65
S1130B90912CA12CB12CF02DC701B601A501940113
S1130BA00E94220669017A01C301B2010E94220651
S1130BB0CA01B901A50194010E942206862F0E9450
S1130BC09D05219749F7DF91CF91FF90EF90DF903A
S1130BD0CF90BF90AF909F908F907F906F905F90D9
S1130BE04F900895CF93C4E18AE00E948605C150D6
S1130BF0D9F78DE00E948605CF910895DB018F938C
S1130C009F930E944406BF91AF91A29F800D911DB6
S1130C10A39F900DB29F900D1124089597FB072E6A
S1130C2016F4009407D077FD09D00E94570607FCFC
S1130C3005D03EF4909581959F4F089570956195E8
S1130C407F4F0895A1E21A2EAA1BBB1BFD010DC004
S1130C50AA1FBB1FEE1FFF1FA217B307E407F50768
S1130C6020F0A21BB30BE40BF50B661F771F881F44
S1130C70991F1A9469F760957095809590959B01DA
S1130C80AC01BD01CF0108950E946B06A59F900D94
S1130C90B49F900DA49F800D911D11240895B7FF5A
S1130CA00C9444060E944406821B930B0895AA1BCD
S1130CB0BB1B51E107C0AA1FBB1FA617B70710F043
S1130CC0A61BB70B881F991F5A95A9F78095909575
S1130CD0BC01CD010895A29FB001B39FC001A39FA1
S1130CE0700D811D1124911DB29F700D811D112461
S1130CF0911D0895FC0188279927E89421912032B9
S1130D00E9F3293010F02E30C8F32B3241F02D32A4
S1130D1039F4689404C00E94A106820F911D2191A8
S1130D2020532A30C0F31EF4909581959F4F089567
S1130D30FB01DC018D91019080190110D9F3990B0D
S1130D4008957AE0979F902D879F802D910D11240F
S1090D500895F894FFCFA2
S1130D567A035245534554494E4720544845204842
S1130D6645414445520A0D004845414445522052E6
S1130D76455345540A0A0D00434C454152494E47D2
S1130D862054484520454550524F4D2E205448493D
S1130D9653204D494748542054414B452041205740
S1130DA648494C452121210A0D00454550524F4DD5
S1130DB620434C4541524544210A0A0D00544553EB
S1130DC654494E473A20746573745F52575F776F80
S1130DD672640A0D004578706563746564206F75E6
S1130DE67470757420313233343A200052454144CC
S1130DF6494E4720574F52443A205355434345538F
S1130E06530A0D0052454144494E4720574F524418
S1130E163A204641494C5552450A0D00474F543A2B
S1130E2620000A0D45585045435445443A2031366E
S1130E363930393036300A0D005445535420434F67
S1130E464D504C455445443A20746573745F52576B
S1130E565F776F72640A0A0D0054455354494E472E
S1130E663A20746573745F52575F627974650A0D2C
S1130E76004578706563746564206F757470757465
S1130E8620343332313A20004578706563746564E2
S1130E96206F757470757420646362613A2000541F
S1130EA645535420434F4D504C455445443A2074C1
S1130EB66573745F52575F627974650A0A0D000A96
S1130EC60D23232323232323232323232047505380
S1130ED62044415441202323232323232323232350
S1130EE623000A0D4C61747469747564653A2000B4
S1130EF60A0D4C6F6E6769747564653A20000A0DB5
S1130F064D6F6E74683A20000A0D4461793A2000E8
S1130F160A0D486F75723A20000A0D4D696E757494
S1130F26653A2000244750524D430053005700545D
S1130F36455354494E473A206765745F6770735F3B
S1130F46636F6F72642066726F6D204750535F70D3
S1130F56617263652E630A0D000A0D5355434345BA
S1130F66535346554C4C59205245434549564544DE
S1130F76204750532044415441000A0D4641494CF0
S1130F86454420544F205245434549564520475031
S1130F96532044415441005445535420434F4D502B
S1130FA64C455445443A20746573745F6770735FA7
S1130FB6636F6F72642066726F6D204750535F7063
S1130FC6617263652E630A0A0D00244750524D432D
S1130FD62C3036343935312E3030302C412C3233E6
S1130FE630372E313235362C4E2C31323031362EC6
S1130FF6343433382C452C302E30332C3136352EC0
S113100634382C3236303430362C332E30352C5797
S11310162C412A3243000A0D455850454354454451
S11310263A20000A0D474F543A000A0A0D23232397
S11310362323232323232323232323232323232376
S11310462323232323232323232323232323232366
S10F10562323232323232323232300002C
S9030000FC
