:100000000C9434000C9449000C9449000C94490061
:100010000C9449000C9449000C9449000C9449003C
:100020000C9449000C9449000C9449000C9449002C
:100030000C9449000C9449000C9449000C9449001C
:100040000C9449000C9449000C9449000C9449000C
:100050000C9449000C9449000C9449000C944900FC
:100060000C9449000C94490011241FBECFEFD8E036
:10007000DEBFCDBF11E0A0E0B1E0EEEEF2E002C0E5
:1000800005900D92AC3FB107D9F70E9446010C9440
:1000900075010C940000F894F999FECF92BD81BDD2
:1000A000F89A80B578940895CF9380E090E00E940C
:1000B0004B00C82F81E090E00E944B002C2F30E0D5
:1000C000322F2227A901482BCA01CF910895CF933F
:1000D000DF93D82F0E945400C92F61E070E08D0F8C
:1000E0000E947A0060E070E08C2F0E947A00DF911D
:1000F000CF910895F894F999FECF97B772BD61BD7D
:1001000080BDFA9AF99A81EE94E00197F1F700C068
:1001100000006230710518F081E00E946700789459
:100120000895CF93C82F0E945400BC018C2F0E94C9
:100130007A00CF910895CF93DF9380E091E00E9401
:100140006601C2E0D0E0BE0180E00E947A00219604
:10015000CC30D105C1F760E070E080E00E947A0009
:1001600061E070E082E00E947A0082E391E00E9408
:100170006601DF91CF9108951F93CF93DF93162FE0
:10018000D42FC22F0E945E01812F0E945E018D2F0D
:100190000E945E018C2F0E945E018AE00E945E0137
:1001A0008DE00E945E01DF91CF911F9108950F9322
:1001B0001F93CF93DF9385E991E00E9466018EE55E
:1001C00091E00E94660124E343E362E381E30E943D
:1001D000BC0081E30E94910082E30E94910083E3CE
:1001E0000E94910084E30E94910085E090E00E94CB
:1001F0004B00C82F84E090E00E944B00D82F83E092
:1002000090E00E944B00182F82E090E00E944B008B
:10021000082F8DEA91E00E946601202F412F6D2F5B
:100220008C2F0E94BC0081E60E94910082E60E9411
:10023000910083E60E94910084E60E94910089E08B
:1002400090E00E944B00C82F88E090E00E944B0095
:10025000D82F87E090E00E944B00182F86E090E0B6
:100260000E944B00082F84EC91E00E946601202F31
:10027000412F6D2F8C2F0E94BC008BED91E00E94CE
:100280006601DF91CF911F910F9108950E944D015A
:100290000E949B000E94D700FFCF88E18093C1009D
:1002A00086E08093C2001092C5008CE08093C40069
:1002B000E0ECF0E08081826080830895E0ECF0E083
:1002C000908195FFFDCF8093C6000895CF93DF9373
:1002D000EC018881882331F021960E945E0189918A
:0E02E0008111FBCFDF91CF910895F894FFCFED
:1002EE00434C454152494E472054484520454550C0
:1002FE00524F4D2E2054484953204D4947485420C3
:10030E0054414B452041205748494C452121210A53
:10031E000D000A0D454550524F4D20434C4541525C
:10032E004544210A0D0054455354494E473A207412
:10033E006573745F52575F776F72640A0D0045786C
:10034E00706563746564206F7574707574203132D6
:10035E0033343A20005445535420434F4D504C45AE
:10036E005445443A20746573745F52575F776F72C9
:10037E00640A0A0D0054455354494E473A20746599
:10038E0073745F52575F627974650A0D0045787019
:10039E006563746564206F757470757420343332C0
:1003AE00313A20004578706563746564206F75740A
:1003BE0070757420646362613A2000544553542072
:1003CE00434F4D504C455445443A20746573745F09
:0C03DE0052575F627974650A0A0D000036
:00000001FF
