S01600004D43555F4750535F4C4F474745522E73726563C1
S11300000C9434000C9449000C9449000C9449005D
S11300100C9449000C9449000C9449000C94490038
S11300200C9449000C9449000C9449000C94490028
S11300300C9449000C9449000C9449000C94490018
S11300400C9449000C9449000C9449000C94490008
S11300500C9449000C9449000C9449000C944900F8
S11300600C9449000C94490011241FBECFEFD8E032
S1130070DEBFCDBF11E0A0E0B1E0EEEBF2E002C0E4
S113008005900D92A836B107D9F70E94A7000C94E9
S11300905D010C940000CF93DF93EC0180E091E0CC
S11300A00E94CD0083E291E00E94CD0068817981B5
S11300B08A819B810E94DC0081E391E00E94CD0053
S11300C06C817D818E819F810E94DC008FE391E0B1
S11300D00E94CD008885805D0E94C50089E491E07E
S11300E00E94CD008985805D0E94C50081E591E074
S11300F00E94CD008A85805D0E94C5008AE591E05A
S11301000E94CD008B85805D0E94C50085E691E04C
S11301100E94CD00DF91CF910895FC0181E090E031
S1130120A0E0B0E080839183A283B38382E090E077
S1130130A0E0B0E084839583A683B78383E08087BF
S113014084E0818785E0828786E0838708950E9422
S1130150B4000E942F0180E090E00E948D0080E0B6
S113016090E00E944B00FFCF88E18093C10086E0BD
S11301708093C2001092C5008CE08093C400E0EC30
S1130180F0E08081826080830895E0ECF0E090816B
S113019095FFFDCF8093C6000895CF93DF93EC01C4
S11301A08881882331F021960E94C50089918111AC
S11301B0FBCFDF91CF9108954F925F926F927F9220
S11301C08F929F92AF92BF92CF92DF92EF92FF9263
S11301D0CF93DF932B013C0120E03AEC4AE95BE347
S11301E00E943B0180E3820F0E94C500C9E0D0E079
S11301F00F2EC12CFAECDF2EFAE9EF2EFBE3FF2ED3
S1130200F02D0F2EFAE08F2E912CA12CB12CF02D75
S1130210C701B601A50194010E943B0169017A015D
S1130220C301B2010E943B01CA01B901A5019401B5
S11302300E943B0180E3860F0E94C500219741F78D
S1130240DF91CF91FF90EF90DF90CF90BF90AF9070
S11302509F908F907F906F905F904F900895CF9371
S1130260C4E18AE00E94C500C150D9F78DE00E9424
S1130270C500CF910895A1E21A2EAA1BBB1BFD0154
S11302800DC0AA1FBB1FEE1FFF1FA217B307E40771
S1130290F50720F0A21BB30BE40BF50B661F771FC9
S11302A0881F991F1A9469F76095709580959095A9
S11102B09B01AC01BD01CF010895F894FFCF6E
S11302BE0A0D2323232323232323232323204750DD
S11302CE5320444154412023232323232323232334
S11302DE2323000A0D4C61747469747564653A20A5
S11302EE000A0D4C6F6E6769747564653A20000AD6
S11302FE0D4D6F6E74683A20000A0D4461793A20F0
S113030E000A0D486F75723A20000A0D4D696E751C
S10B031E74653A20000A0D0089
S9030000FC
