:100000000C9434000C9449000C9449000C94490061
:100010000C9449000C9449000C9449000C9449003C
:100020000C9449000C9449000C9449000C9449002C
:100030000C9449000C9449000C9449000C9449001C
:100040000C9449000C9449000C9449000C9449000C
:100050000C9449000C9449000C9449000C944900FC
:100060000C9449000C94490011241FBECFEFD8E036
:10007000DEBFCDBF11E0A0E0B1E0EAEEF1E002C0EA
:1000800005900D92A031B107D9F70E9480000C9421
:10009000F3000C940000F894F999FECF97B772BD65
:1000A00061BD80BDFA9AF99A81EE94E00197F1F76B
:1000B00000C0000078940895F894F999FECF92BD9D
:1000C00081BDF89A80B5789408951F93CF93DF93FC
:1000D000162FD42FC22F0E94D300812F0E94D3004D
:1000E0008D2F0E94D3008C2F0E94D3008AE00E94A3
:1000F000D3008DE00E94D300DF91CF911F9108952E
:100100000E94BF0080E091E00E94DD0024E643E60B
:1001100062E681E60E94650060E070E081E60E9490
:100120004B0061E070E082E60E944B0062E070E00C
:1001300083E60E944B0063E070E084E60E944B007F
:1001400083E090E00E945C00C82F82E090E00E9473
:100150005C00D82F81E090E00E945C00182F80E0C6
:1001600090E00E945C00082F88E091E00E94DD0092
:10017000202F412F6D2F8C2F0E946500FFCFE1ECC7
:10018000F0E0808188618083E2ECF0E080818F7311
:10019000808386E08093C40008958091C00085FB31
:1001A000882780F90895CF93C82F0E94CD00882317
:1001B000E1F3C093C600CF9108950F931F93CF939F
:1001C000DF936115710551F08C01EC01060F171FCB
:1001D00089910E94D300C017D107D1F7DF91CF9149
:0A01E0001F910F910895F894FFCFCE
:1001EA004245464F52453A0041465445523A00006C
:00000001FF
