S01600004D43555F4750535F4C4F474745522E73726563C1
S11300000C9434000C943E000C943E000C943E007E
S11300100C943E000C943E000C943E000C943E0064
S11300200C943E000C943E000C943E000C943E0054
S11300300C943E000C943E000C943E000C943E0044
S11300400C943E000C943E000C943E000C943E0034
S11300500C943E000C943E000C943E000C943E0024
S11300600C943E000C943E0011241FBECFEFD8E048
S1130070DEBFCDBF0E94B6000C9405010C940000B5
S1130080F894F999FECF92BD81BDF89A80B5789421
S11300900895CF9380E090E00E944000C82F81E053
S11300A090E00E9440002C2F30E0322F2227A9013B
S11300B0482BCA01CF910895CF93DF93D82F0E9484
S11300C04900C92F61E070E08D0F0E946F0060E06D
S11300D070E08C2F0E946F00DF91CF910895F89407
S11300E0F999FECF97B772BD61BD80BDFA9AF99AAE
S11300F081EE94E00197F1F700C0000062307105D1
S113010018F081E00E945C0078940895CF93C82F82
S11301100E944900BC018C2F0E946F00CF9108956A
S113012060E070E080E00E946F0061E070E082E0D7
S11301300E946F0008951F93CF93DF93162FD42F3F
S1130140C22F0E94FD00812F0E94FD008D2F0E946E
S1130150FD008C2F0E94FD008AE00E94FD008DE0CE
S11301600E94FD00DF91CF911F9108950E94EC0041
S11301700E94900087EA91E60197F1F700C0000021
S113018024E343E362E381E30E949B0081E30E9452
S1130190860082E30E94860083E30E94860084E353
S11301A00E94860085E090E00E944000C82F84E011
S11301B090E00E944000D82F83E090E00E9440002D
S11301C0182F82E090E00E944000282F412F6D2FCD
S11301D08C2F0E949B00FFCF88E18093C10086E0B2
S11301E08093C2001092C5008CE08093C400E0ECC0
S11301F0F0E08081826080830895E0ECF0E09081FB
S111020095FFFDCF8093C6000895F894FFCFBC
S9030000FC
