S01600004D43555F4750535F4C4F474745522E73726563C1
S11300000C9434000C9449000C9449000C9449005D
S11300100C9449000C9449000C9449000C94490038
S11300200C9449000C9449000C9449000C94490028
S11300300C9449000C9449000C9449000C94490018
S11300400C9449000C9449000C9449000C94490008
S11300500C9449000C9449000C9449000C944900F8
S11300600C9449000C94490011241FBECFEFD8E032
S1130070DEBFCDBF11E0A0E0B1E0EAEBF1E002C0E9
S113008005900D92A43CB107D9F70E9480000C940E
S1130090DB000C94000080E091E00E94A0008AE163
S11300A091E00E94A0008FEF0E94AF008EEB91E0E0
S11300B00E94A0008CE391E00E94A00080E00E94D6
S11300C0AF008EEB91E00E94A0008DE591E00E94CC
S11300D0A00085E50E94AF008EEB91E00E94A00095
S11300E08EE791E00E94A0008AEA0E94AF008EEBA6
S11300F091E00E94A0008FE991E00E94A000089581
S11301000E9487000E94CF000E944B00FFCF88E12D
S11301108093C10086E08093C2001092C5008CE0F9
S11301208093C400E0ECF0E08081826080830895D5
S1130130E0ECF0E0908195FFFDCF8093C600089538
S1130140CF93DF93EC018881882331F021960E94BC
S1130150980089918111FBCFDF91CF9108950F937E
S11301601F93CF93082F81EC91E00E94A000C7E079
S113017010E098010C2E02C0359527950A94E2F7F9
S113018020FF04C081E30E94980003C080E30E9422
S11301909800C15070F7CF911F910F910895CF939C
S11301A0C4E18AE00E949800C150D9F78DE00E9412
S10D01B09800CF910895F894FFCF52
S11301BA54455354494E473A20746573745F5458EE
S11301CA5F62696E6172790A0D00457870656374BD
S11301DA6564206F75747075742030623131313101
S11301EA313131312C20676F743A200045787065BB
S11301FA63746564206F757470757420306230306E
S113020A3030303030302C20676F742000457870DD
S113021A6563746564206F75747075742030623018
S113022A313031303130312C20676F7420004578F9
S113023A706563746564206F7574707574203062B8
S113024A31303130313031302C20676F7420005412
S113025A45535420434F4D504C455445443A207419
S113026A6573745F54585F62696E6172790A0A0D24
S107027A00306200EA
S9030000FC
