S01600004D43555F4750535F4C4F474745522E73726563C1
S11300000C9434000C9449000C9449000C9449005D
S11300100C9449000C9449000C9449000C94490038
S11300200C9449000C9449000C9449000C94490028
S11300300C9449000C9449000C9449000C94490018
S11300400C9449000C9449000C9449000C94490008
S11300500C9449000C9449000C9449000C944900F8
S11300600C9449000C94490011241FBECFEFD8E032
S1130070DEBFCDBF11E0A0E0B1E0E6E1F3E002C0F5
S113008005900D92A836B107D9F70E94C2000C94CE
S113009089010C940000CF93DF93EC0180E091E0A0
S11300A00E94F90083E291E00E94F900688179815D
S11300B08A819B810E94080181E391E00E94F900FA
S11300C06C817D818E819F810E9408018FE391E084
S11300D00E94F9008885805D0E94F10089E491E026
S11300E00E94F9008985805D0E94F10081E591E01C
S11300F00E94F9008A85805D0E94F1008AE591E002
S11301000E94F9008B85805D0E94F10085E691E0F4
S11301100E94F900DF91CF910895DC01FB0141E0D9
S113012050E060E070E04D935D936D937C93139782
S113013042E050E060E070E014964D935D936D935F
S11301407C93179783E018968C93189784E01996FC
S11301508C93199785E01A968C931A9786E01B96D0
S11301608C9387E090E0A0E0B0E080839183A28349
S1130170B38384839583A683B783808781878287AB
S113018083870895CF93DF93CDB7DEB768970FB613
S1130190F894DEBF0FBECDBF0E94E0000E945B0159
S11301A0BE01635F7F4FCE0101960E948D00CE0198
S11301B001960E944B00CE010D960E944B00FFCF8A
S11301C088E18093C10086E08093C2001092C5004C
S11301D08CE08093C400E0ECF0E080818260808356
S11301E00895E0ECF0E0908195FFFDCF8093C60088
S11301F00895CF93DF93EC018881882331F0219611
S11302000E94F10089918111FBCFDF91CF91089574
S11302104F925F926F927F928F929F92AF92BF9212
S1130220CF92DF92EF92FF92CF93DF932B013C01A9
S113023020E03AEC4AE95BE30E94670180E3820F25
S11302400E94F100C9E0D0E00F2EC12CFAECDF2EA1
S1130250FAE9EF2EFBE3FF2EF02D0F2EFAE08F2E9E
S1130260912CA12CB12CF02DC701B601A50194014C
S11302700E94670169017A01C301B2010E9467010A
S1130280CA01B901A50194010E94670180E3860FA8
S11302900E94F100219741F7DF91CF91FF90EF90F9
S11302A0DF90CF90BF90AF909F908F907F906F9092
S11302B05F904F900895CF93C4E18AE00E94F100CB
S11302C0C150D9F78DE00E94F100CF910895A1E2C9
S11302D01A2EAA1BBB1BFD010DC0AA1FBB1FEE1FBC
S11302E0FF1FA217B307E407F50720F0A21BB30B07
S11302F0E40BF50B661F771F881F991F1A9469F783
S113030060957095809590959B01AC01BD01CF01DE
S10903100895F894FFCFEC
S11303160A0D232323232323232323232320475084
S113032653204441544120232323232323232323DB
S11303362323000A0D4C61747469747564653A204C
S1130346000A0D4C6F6E6769747564653A20000A7D
S11303560D4D6F6E74683A20000A0D4461793A2097
S1130366000A0D486F75723A20000A0D4D696E75C4
S10B037674653A20000A0D0031
S9030000FC
