S01600004D43555F4750535F4C4F474745522E73726563C1
S11300000C9434000C9449000C9449000C9449005D
S11300100C9449000C9449000C9449000C94490038
S11300200C9449000C9449000C9449000C94490028
S11300300C9449000C9449000C9449000C94490018
S11300400C9449000C9449000C9449000C94490008
S11300500C9449000C9449000C9449000C944900F8
S11300600C9449000C94490011241FBECFEFD8E032
S1130070DEBFCDBF11E0A0E0B1E0EEE9F1E002C0E7
S113008005900D92A43CB107D9F70E9480000C940E
S1130090CD000C94000080E091E00E949E008AE173
S11300A091E00E949E008FEF0E94AD008EEB91E0E4
S11300B00E949E008CE391E00E949E0080E00E94DA
S11300C0AD008EEB91E00E949E008DE591E00E94D0
S11300D09E0085E50E94AD008EEB91E00E949E009B
S11300E08EE791E00E949E008AEA0E94AD008EEBAA
S11300F091E00E949E008FE991E00E949E00089585
S11301000E9485000E944B00FFCF88E18093C100CC
S113011086E08093C2001092C5008CE08093C400F6
S1130120E0ECF0E08081826080830895E0ECF0E010
S1130130908195FFFDCF8093C6000895CF93DF9300
S1130140EC018881882331F021960E9496008991E0
S11301508111FBCFDF91CF9108950F931F93CF931C
S1130160082F81EC91E00E949E00C7E010E0980106
S11301700C2E02C0359527950A94E2F720FF04C09F
S113018081E30E94960003C080E30E949600C15060
S111019070F7CF911F910F910895F894FFCF4F
S113019E54455354494E473A20746573745F54580A
S11301AE5F62696E6172790A0D00457870656374D9
S11301BE6564206F7574707574203062313131311D
S11301CE313131312C20676F743A200045787065D7
S11301DE63746564206F757470757420306230308A
S11301EE3030303030302C20676F742000457870FA
S11301FE6563746564206F75747075742030623035
S113020E313031303130312C20676F742000457815
S113021E706563746564206F7574707574203062D4
S113022E31303130313031302C20676F742000542E
S113023E45535420434F4D504C455445443A207435
S113024E6573745F54585F62696E6172790A0A0D40
S107025E0030620006
S9030000FC
