:100000000C9434000C9449000C9449000C94490061
:100010000C9449000C9449000C9449000C9449003C
:100020000C9449000C9449000C9449000C9449002C
:100030000C9449000C9449000C9449000C9449001C
:100040000C9449000C9449000C9449000C9449000C
:100050000C9449000C9449000C9449000C944900FC
:100060000C9449000C94490011241FBECFEFD8E036
:10007000DEBFCDBF11E0A0E0B1E0EAE4F2E002C0F3
:1000800005900D92A634B107D9F70E94F4000C94A4
:1000900023010C940000F894F999FECF92BD81BD24
:1000A000F89A80B578940895CF9380E090E00E940C
:1000B0004B00C82F81E090E00E944B002C2F30E0D5
:1000C000322F2227A901482BCA01CF910895CF933F
:1000D000DF93D82F0E945400C92F61E070E08D0F8C
:1000E0000E947A0060E070E08C2F0E947A00DF911D
:1000F000CF910895F894F999FECF97B772BD61BD7D
:1001000080BDFA9AF99A81EE94E00197F1F700C068
:1001100000006230710518F081E00E946700789459
:100120000895CF93C82F0E945400BC018C2F0E94C9
:100130007A00CF910895CF92DF92EF92FF92CF9302
:100140006B017C01C3E08C2F880F880F880FA701FB
:10015000960104C056954795379527958A95D2F70D
:10016000DA01C9010E949100C15068F7CF91FF9058
:10017000EF90DF90CF900895CF93DF9380E091E0F0
:100180000E941401C2E0D0E0BE0180E00E947A002B
:100190002196CC30D105C1F760E070E080E00E948C
:1001A0007A0061E070E082E00E947A0082E391E0F0
:1001B0000E941401DF91CF910895CF93DF9364E003
:1001C00073E082E091E00E949B00C2E0D0E0CE01AB
:1001D0000E944B00805D0E940C012196C630D10523
:1001E000B1F7DF91CF9108950E94FB000E94BC00FF
:1001F0000E94DD00FFCF88E18093C10086E08093FC
:10020000C2001092C5008CE08093C400E0ECF0E0E6
:100210008081826080830895E0ECF0E0908195FF1A
:10022000FDCF8093C6000895CF93DF93EC018881C2
:10023000882331F021960E940C0189918111FBCF16
:0A024000DF91CF910895F894FFCFED
:10024A00434C454152494E47205448452045455064
:10025A00524F4D2E2054484953204D494748542067
:10026A0054414B452041205748494C452121210AF8
:10027A000D000A0D454550524F4D20434C45415201
:06028A004544210A0D00AD
:00000001FF
