S01600004D43555F4750535F4C4F474745522E73726563C1
S11300000C9434000C9449000C9449000C9449005D
S11300100C9449000C9449000C9449000C94490038
S11300200C9449000C9449000C9449000C94490028
S11300300C9449000C9449000C9449000C94490018
S11300400C9449000C9449000C9449000C94490008
S11300500C9449000C9449000C9449000C944900F8
S11300600C9449000C94490011241FBECFEFD8E032
S1130070DEBFCDBF13E0A0E0B1E0E0ECF7E002C0EA
S113008005900D92A436B107D9F70E947D020C9415
S1130090DE030C940000F894F999FECF92BD81BD63
S11300A0F89A80B578940895CF92DF92EF92FF92F8
S11300B00F931F93CF93DF938C01C8E1D0E0C12C41
S11300C0D12C7601C8010E944B0090E0A0E0B0E082
S11300D00C2E04C0880F991FAA1FBB1F0A94D2F7C5
S11300E0C82AD92AEA2AFB2A0F5F1F4F2897C83F3C
S11300F08FEFD80739F7C701B601DF91CF911F9170
S11301000F91FF90EF90DF90CF900895CF9380E010
S113011090E00E944B00C82F81E090E00E944B00C9
S11301202C2F30E0322F2227A901482BCA01CF916E
S11301300895CF93DF93C82F0E9486008C0F911DE2
S1130140EC0161E070E00E94AD0060E070E08D2F92
S11301500E94AD00DF91CF910895F894F999FECFF4
S113016097B772BD61BD80BDFA9AF99A81EE94E0A9
S11301700197F1F700C000006430710518F081E0C8
S11301800E94990078940895CF93C82F0E94860006
S1130190BC018C2F0E94AD00CF910895CF92DF92C5
S11301A0EF92FF92CF936B017C01C3E08C2F880FF9
S11301B0880F880FA701960104C056954795379577
S11301C027958A95D2F7DA01C9010E94C400C1506B
S11301D068F7CF91FF90EF90DF90CF90089580E083
S11301E091E00E944A0360E070E080E00E94AD006C
S11301F061E070E084E00E94AD0063E070E080E0C4
S11302000E94AD0086E191E00E944A0308951F9385
S1130210CF93DF93162FD42FC22F0E944203812F36
S11302200E9442038D2F0E9442038C2F0E9442039E
S11302308AE00E9442038DE00E944203DF91CF9145
S11302401F910895CF93DF930E94EF008BE691E016
S11302500E944A0383E891E00E944A0364E073E049
S113026082E091E00E94CE00C4E0D0E0CE010E9482
S11302704B00805D0E9442032196C830D105B1F73E
S113028088E691E00E944A0384E090E00E945400D2
S1130290643073408240914029F48AE991E00E94DD
S11302A04A0318C082EB91E00E944A038AEC91E071
S11302B00E944A03C4E0D0E0CE010E944B00805D5E
S11302C00E9442032196C830D105B1F780ED91E038
S11302D00E944A0387EE91E00E944A03DF91CF9186
S11302E008950F931F93CF93DF930E94EF0087E04D
S11302F092E00E944A0383E891E00E944A0324E3C7
S113030043E362E381E30E94070181E30E94C400A6
S113031082E30E94C40083E30E94C40084E30E9439
S1130320C40087E090E00E944B00C82F86E090E074
S11303300E944B00D82F85E090E00E944B00182FBC
S113034084E090E00E944B00082F8FE192E00E942D
S11303504A03202F412F6D2F8C2F0E94070181E625
S11303600E94C40082E60E94C40083E60E94C40086
S113037084E60E94C4008BE090E00E944B00C82FEA
S11303808AE090E00E944B00D82F89E090E00E9420
S11303904B00182F88E090E00E944B00082F86E362
S11303A092E00E944A03202F412F6D2F8C2F0E9430
S11303B007018DE492E00E944A03DF91CF911F91DF
S11303C00F910895CF93DF93EC01688179818A813D
S11303D09B810E94CE006C817D818E819F810E94D1
S11303E0CE0088850E94C40089850E94C4008A8545
S11303F00E94C4008B850E94C400DF91CF910895B0
S1130400CF93DF93EC018DE692E00E944A0380E9EA
S113041092E00E944A03688179818A819B810E94CB
S11304205D038EE992E00E944A036C817D818E8196
S11304309F810E945D038CEA92E00E944A038885B2
S11304400E94590386EB92E00E944A0389850E9428
S113045059038EEB92E00E944A038A850E94590355
S113046087EC92E00E944A038B850E94590388E638
S113047091E00E944A03DF91CF9108950F931F9357
S1130480CF93DF938B0190E0EC01CC0FDD1F8C0F39
S11304909D1FEC01CC0FDD1FCC0FDD1FCE01049698
S11304A00E945400F8016083718382839383CE0198
S11304B008960E945400F8016483758386839783A9
S11304C0CE010C960E944B00F8018087CE010D9658
S11304D00E944B00F8018187CE010E960E944B00CA
S11304E0F8018287CE010F960E944B00F8018387A2
S11304F0DF91CF911F910F9108950E9431030E94C3
S1130500B0030E94EF000E948602FFCF0E94CB023C
S11305100E9471010E9422010E948F0208950E948C
S1130520EF0082ED92E00E944A030895DC01FB0192
S113053041E050E060E070E04D935D936D937C93F7
S1130540139742E050E060E070E014964D935D93A1
S11305506D937C93179783E018968C93189784E097
S113056019968C93199785E01A968C931A9786E0BE
S11305701B968C9387E090E0A0E0B0E080839183A9
S1130580A283B38384839583A683B783808781877B
S11305908287838708950F931F93CF93DF93CDB7FB
S11305A0DEB7A4970FB6F894DEBF0FBECDBF0E948E
S11305B0EF008E01075E1F4F8CE0F80111928A95BF
S11305C0E9F7BE01635F7F4FCE0101960E94960258
S11305D0CE0101960E94E201CE010D960E94E20135
S11305E0B80180E00E943E0285E393E00E944A0342
S11305F08EE193E00E944A03CE0101960E9400021C
S11306008BE293E00E944A03C8010E94000285E342
S113061093E00E944A03B80181E00E943E0282E313
S113062093E00E944A038EE193E00E944A03CE01C4
S11306300D960E9400028BE293E00E944A03C801D7
S11306400E94000285E393E00E944A03A4960FB639
S1130650F894DEBF0FBECDBFDF91CF911F910F91F4
S1130660089588E18093C10086E08093C2001092CF
S1130670C5008CE08093C400E0ECF0E080818260EF
S113068080830895E0ECF0E0908195FFFDCF8093A6
S1130690C6000895CF93DF93EC018881882331F05D
S11306A021960E94420389918111FBCFDF91CF9162
S11306B00895805D0E94420308954F925F926F9265
S11306C07F928F929F92AF92BF92CF92DF92EF92DE
S11306D0FF92CF93DF932B013C0120E03AEC4AE9EF
S11306E05BE30E94BC0380E3820F0E944203C9E0E3
S11306F0D0E00F2EC12CFAECDF2EFAE9EF2EFBE34B
S1130700FF2EF02D0F2EFAE08F2E912CA12CB12C60
S1130710F02DC701B601A50194010E94BC03690133
S11307207A01C301B2010E94BC03CA01B901A50147
S113073094010E94BC0380E3860F0E944203219728
S113074041F7DF91CF91FF90EF90DF90CF90BF9072
S1130750AF909F908F907F906F905F904F9008958F
S1130760CF93C4E18AE00E944203C150D9F78DE0DF
S11307700E944203CF910895A1E21A2EAA1BBB1B2B
S1130780FD010DC0AA1FBB1FEE1FFF1FA217B30759
S1130790E407F50720F0A21BB30BE40BF50B661F6F
S11307A0771F881F991F1A9469F760957095809533
S11307B090959B01AC01BD01CF010895F894FFCF42
S11307C05245534554494E472054484520484541D5
S11307D04445520A0D004845414445522052455370
S11307E045540A0A0D00434C454152494E47205492
S11307F0484520454550524F4D2E205448495320DA
S11308004D494748542054414B45204120574849BD
S11308104C452121210A0D00454550524F4D20439E
S11308204C4541524544210A0A0D0054455354494C
S11308304E473A20746573745F52575F776F7264E2
S11308400A0D004578706563746564206F75747073
S1130850757420313233343A200052454144494EB4
S11308604720574F52443A20535543434553530A64
S11308700D0052454144494E4720574F52443A20B7
S11308804641494C5552450A0D00474F543A200001
S11308900A0D45585045435445443A2031363930C1
S11308A0393036300A0D005445535420434F4D50CF
S11308B04C455445443A20746573745F52575F77CE
S11308C06F72640A0A0D0054455354494E473A2046
S11308D0746573745F52575F627974650A0D0045DD
S11308E078706563746564206F75747075742034F2
S11308F03332313A20004578706563746564206F43
S1130900757470757420646362613A2000544553B1
S11309105420434F4D504C455445443A207465731C
S1130920745F52575F627974650A0A0D000A0D23D9
S113093023232323232323232323204750532044E7
S1130940415441202323232323232323232323002C
S11309500A0D4C61747469747564653A20000A0D5B
S11309604C6F6E6769747564653A20000A0D4D6FAB
S11309706E74683A20000A0D4461793A20000A0D29
S1130980486F75723A20000A0D4D696E7574653AA8
S11309902000244750524D432C3036343935312E03
S11309A03030302C412C323330372E313235362C26
S11309B04E2C31323031362E343433382C452C30F1
S11309C02E30332C3136352E34382C323630343008
S11309D0362C332E30352C572C412A3243000A0D45
S11309E045585045435445443A20000A0D474F5456
S11309F03A000A0A0D232323232323232323232317
S1130A0023232323232323232323232323232323B2
S1130A1023232323232323232323232323232323A2
S1070A202323000088
S9030000FC
