S01600004D43555F4750535F4C4F474745522E73726563C1
S11300000C9434000C943E000C943E000C943E007E
S11300100C943E000C943E000C943E000C943E0064
S11300200C943E000C943E000C943E000C943E0054
S11300300C943E000C943E000C943E000C943E0044
S11300400C943E000C943E000C943E000C943E0034
S11300500C943E000C943E000C943E000C943E0024
S11300600C943E000C943E0011241FBECFEFD8E048
S1130070DEBFCDBF0E947A000C94C7000C94000030
S1130080F894F999FECF97B772BD61BD80BDFA9A15
S1130090F99A81EE94E00197F1F700C0000078949A
S11300A0089560E070E00E9440000895F894F99982
S11300B0FECF92BD81BDF89A80B5789408951F93C0
S11300C0CF93DF93162FD42FC22F0E94BF00812F0E
S11300D00E94BF008D2F0E94BF008C2F0E94BF0082
S11300E08AE00E94BF008DE00E94BF00DF91CF91A3
S11300F01F9108950E94AE0087EA91E60197F1F7F7
S113010000C0000024E643E662E681E60E945F0048
S113011081E60E94510082E60E94510083E60E941B
S1130120510084E60E94510083E090E00E94560052
S1130130C82F82E090E00E945600D82F81E090E022
S11301400E945600182F80E090E00E945600282F4D
S1130150412F6D2F8C2F0E945F00FFCF88E1809389
S1130160C10086E08093C2001092C5008CE08093A9
S1130170C400E0ECF0E08081826080830895E0ECCC
S1130180F0E0908195FFFDCF8093C6000895F89428
S1050190FFCF9B
S9030000FC
