S01600004D43555F4750535F4C4F474745522E73726563C1
S11300000C9434000C943E000C943E000C943E007E
S11300100C943E000C943E000C943E000C943E0064
S11300200C943E000C943E000C943E000C943E0054
S11300300C943E000C943E000C943E000C943E0044
S11300400C943E000C943E000C943E000C943E0034
S11300500C943E000C943E000C943E000C943E0024
S11300600C943E000C943E0011241FBECFEFD8E048
S1130070DEBFCDBF0E9475000C94CA000C94000032
S1130080F894F999FECF97B772BD61BD80BDFA9A15
S1130090F99A81EE94E00197F1F700C0000078949A
S11300A00895F894F999FECF92BD81BDF89A80B570
S11300B0789408951F93CF93DF93162FD42FC22FD4
S11300C00E94C200812F0E94C2008D2F0E94C20094
S11300D08C2F0E94C2008AE00E94C2008DE00E9420
S11300E0C200DF91CF911F9108950E94B10087EA69
S11300F091E60197F1F700C0000024E643E662E6CA
S113010081E60E945A0060E070E081E60E944000AF
S113011061E070E082E60E94400062E070E083E605
S11301200E94400063E070E084E60E94400083E0A7
S113013090E00E945100C82F82E090E00E9451009C
S1130140D82F81E090E00E945100182F80E090E0C9
S11301500E945100282F412F6D2F8C2F0E945A008E
S1130160FFCF88E18093C10086E08093C2001092A3
S1130170C5008CE08093C400E0ECF0E080818260F4
S113018080830895E0ECF0E0908195FFFDCF8093AB
S10B0190C6000895F894FFCFA6
S9030000FC
