:100000000C9434000C943E000C943E000C943E0082
:100010000C943E000C943E000C943E000C943E0068
:100020000C943E000C943E000C943E000C943E0058
:100030000C943E000C943E000C943E000C943E0048
:100040000C943E000C943E000C943E000C943E0038
:100050000C943E000C943E000C943E000C943E0028
:100060000C943E000C943E0011241FBECFEFD8E04C
:10007000DEBFCDBF0E9440000C946E000C940000C7
:100080000E9445000E945E00FDCF88E18093C10080
:1000900086E08093C2001092C5008CE08093C4007B
:1000A000E0ECF0E08081826080830895E0ECF0E095
:1000B000908195FFFDCF8093C6000895CF93DF9385
:1000C000E0ECF0E080818823ECF7C6ECD0E088819A
:1000D0000E9456008881DF91CF910895F894FFCF58
:00000001FF
