S01600004D43555F4750535F4C4F474745522E73726563C1
S11300000C9434000C9449000C9449000C9449005D
S11300100C9449000C9449000C9449000C94490038
S11300200C9449000C9449000C9449000C94490028
S11300300C9449000C9449000C9449000C94490018
S11300400C9449000C9449000C9449000C94490008
S11300500C9449000C9449000C9449000C944900F8
S11300600C9449000C94490011241FBECFEFD8E032
S1130070DEBFCDBF13E0A0E0B1E0ECE0FDE002C0E4
S113008005900D92AE3AB107D9F70E9475040C940D
S113009084060C940000F894F999FECF92BD81BDBA
S11300A0F89A80B578940895CF92DF92EF92FF92F8
S11300B00F931F93CF93DF938C01C8E1D0E0C12C41
S11300C0D12C7601C8010E944B0090E0A0E0B0E082
S11300D00C2E04C0880F991FAA1FBB1F0A94D2F7C5
S11300E0C82AD92AEA2AFB2A0F5F1F4F2897C83F3C
S11300F08FEFD80739F7C701B601DF91CF911F9170
S11301000F91FF90EF90DF90CF900895CF9380E010
S113011090E00E944B00C82F81E090E00E944B00C9
S11301202C2F30E0322F2227A901482BCA01CF916E
S11301300895CF93DF93C82F0E9486008C0F911DE2
S1130140EC0161E070E00E94AD0060E070E08D2F92
S11301500E94AD00DF91CF910895F894F999FECFF4
S113016097B772BD61BD80BDFA9AF99A81EE94E0A9
S11301700197F1F700C000006430710518F081E0C8
S11301800E94990078940895CF93C82F0E94860006
S1130190BC018C2F0E94AD00CF910895CF92DF92C5
S11301A0EF92FF92CF936B017C01C3E08C2F880FF9
S11301B0880F880FA701960104C056954795379577
S11301C027958A95D2F7DA01C9010E94C400C1506B
S11301D068F7CF91FF90EF90DF90CF90089582E081
S11301E091E00E94670560E070E080E00E94AD004D
S11301F061E070E084E00E94AD0063E070E080E0C4
S11302000E94AD0088E191E00E94670508951F9364
S1130210CF93DF93162FD42FC22F0E945F05812F17
S11302200E945F058D2F0E945F058C2F0E945F0541
S11302308AE00E945F058DE00E945F05DF91CF9107
S11302401F910895CF93DF930E94EF008DE691E014
S11302500E94670585E891E00E94670564E073E009
S113026082E091E00E94CE00C4E0D0E0CE010E9482
S11302704B00805D0E945F052196C830D105B1F71F
S11302808AE691E00E94670584E090E00E945400B1
S1130290643073408240914029F48CE991E00E94DB
S11302A0670518C084EB91E00E9467058CEC91E02F
S11302B00E946705C4E0D0E0CE010E944B00805D3F
S11302C00E945F052196C830D105B1F782ED91E017
S11302D00E94670589EE91E00E946705DF91CF9146
S11302E008950F931F93CF93DF930E94EF0089E04B
S11302F092E00E94670585E891E00E94670524E387
S113030043E362E381E30E94070181E30E94C400A6
S113031082E30E94C40083E30E94C40084E30E9439
S1130320C40087E090E00E944B00C82F86E090E074
S11303300E944B00D82F85E090E00E944B00182FBC
S113034084E090E00E944B00082F81E292E00E943A
S11303506705202F412F6D2F8C2F0E94070181E606
S11303600E94C40082E60E94C40083E60E94C40086
S113037084E60E94C4008BE090E00E944B00C82FEA
S11303808AE090E00E944B00D82F89E090E00E9420
S11303904B00182F88E090E00E944B00082F88E360
S11303A092E00E946705202F412F6D2F8C2F0E9411
S11303B007018FE492E00E946705DF91CF911F91BE
S11303C00F910895CF93DF93EC01688179818A813D
S11303D09B810E94CE006C817D818E819F810E94D1
S11303E0CE0088850E94C40089850E94C4008A8545
S11303F00E94C4008B850E94C400DF91CF910895B0
S1130400CF93DF93EC018FE692E00E94670582E9C7
S113041092E00E946705688179818A819B810E94AC
S11304207A0580EA92E00E9467056C817D818E8165
S11304309F810E947A058EEA92E00E946705888572
S11304400E94760588EB92E00E94670589850E94E8
S1130450760580EC92E00E9467058A850E94760505
S113046089EC92E00E9467058B850E9476058AE6F6
S113047091E00E946705DF91CF9108950F931F9338
S1130480CF93DF938B0190E0EC01CC0FDD1F8C0F39
S11304909D1FEC01CC0FDD1FCC0FDD1FCE01049698
S11304A00E945400F8016083718382839383CE0198
S11304B008960E945400F8016483758386839783A9
S11304C0CE010C960E944B00F8018087CE010D9658
S11304D00E944B00F8018187CE010E960E944B00CA
S11304E0F8018287CE010F960E944B00F8018387A2
S11304F0DF91CF911F910F9108950F931F93CF9385
S1130500DF938C01E62FF72F60E070E020E030E00D
S1130510DF0190819C3219F42F5F3F4F1BC02417D9
S1130520350741F4E801C60FD71F98836F5F7F4FEB
S11305309A0108C0421753072CF4F801E60FF71F7D
S113054010820AC09C919D3029F4F801E60FF71F30
S1130550108202C03196DCCFDF91CF911F910F91B1
S113056008954F925F926F927F928F929F92AF9273
S1130570BF92EF92FF920F931F93CF93DF93CDB768
S1130580DEB7E8970FB6F894DEBF0FBECDBF7C018F
S11305908B0143E050E0CE0101960E947D028981E7
S11305A0882309F45AC0898B8A818A8B1B8A8B81A0
S11305B089A38C818AA38E818BA38F818CA3888548
S11305C08DA389858EA318A644E050E0B801CE011E
S11305D0C1960E947D026BED72E0CE01C1960E942D
S11305E07306892B29F488248A94982C540104C016
S11305F0812C912C54018394CE0141960E9455067E
S11306008C01CE0181960E94550624E6AC01249FFC
S1130610C001259F900D11246CE370E00E94E90550
S11306202B01770F66087708D80120E432E44FE005
S113063050E00E942A06A3019201260F371F481F8B
S1130640591FC501B4010E94D905F7016083718364
S11306508283938381E090E002C080E090E0E8969A
S11306600FB6F894DEBF0FBECDBFDF91CF911F91BF
S11306700F91FF90EF90BF90AF909F908F907F90DD
S11306806F905F904F9008954F925F926F927F9218
S11306908F929F92AF92BF92EF92FF920F931F930C
S11306A0CF93DF93CDB7DEB7E8970FB6F894DEBFEC
S11306B00FBECDBF7C018B0145E050E0CE01019619
S11306C00E947D028981882309F45CC0898B8A8118
S11306D08A8B8B818B8B1C8A8C8189A38D818AA3C5
S11306E08F818BA388858CA389858DA38A858EA30E
S11306F019A646E050E0B801CE01C1960E947D02E1
S11307006DED72E0CE01C1960E947306892B29F427
S113071088248A94982C540104C0812C912C54016F
S11307208394CE0141960E9455068C01CE01819698
S11307300E94550624E6AC01249FC001259F900D1C
S113074011246CE370E00E94E9052B01770F660821
S11307507708D80120E432E44FE050E00E942A06F2
S1130760A3019201260F371F481F591FC501B40169
S11307700E94D905F701648375838683978381E09A
S113078090E002C080E090E0E8960FB6F894DEBFF7
S11307900FBECDBFDF91CF911F910F91FF90EF90CE
S11307A0BF90AF909F908F907F906F905F904F908D
S11307B008950F931F93CF93DF93CDB7DEB7689758
S11307C00FB6F894DEBF0FBECDBF8C0149E050E0F8
S11307D0CE0101960E947D0289818823C1F09B810C
S11307E099879C819A871B86898B8A818A8B1B8A2D
S11307F0CE0109960E945506F8018087CE014196E4
S11308000E945506F801818781E090E002C080E0F3
S113081090E068960FB6F894DEBF0FBECDBFDF91AF
S1130820CF911F910F9108950F931F93CF93DF934F
S1130830CDB7DEB768970FB6F894DEBF0FBECDBF55
S11308408C0141E050E0CE0101960E947D02898135
S11308508823C1F089878A818A871B86CE010996FD
S11308600E945506F80182878B81898B8C818A8B43
S11308701B8ACE0141960E945506F801838781E0C8
S113088090E002C080E090E068960FB6F894DEBF76
S11308900FBECDBFDF91CF911F910F9108950F939C
S11308A01F93CF93DF93EC018B010E94B102009759
S11308B0B9F0B801CE010E944403009789F0B80151
S11308C0CE010E94D903009759F0B801CE010E94CD
S11308D0140431E020E0892B09F430E0832F922FB7
S11308E0DF91CF911F910F9108950E944E050E94B0
S11308F0CD050E94EF000E947E04FFCF0E94E80411
S11309000E9471010E9422010E9487040895CF93DE
S1130910DF93CDB7DEB72C970FB6F894DEBF0FBECA
S1130920CDBF0E94EF006091000170910101CE01E2
S113093001960E944F04892B49F08FED92E00E94AA
S11309406705CE0101960E94000204C080E093E096
S11309500E9467052C960FB6F894DEBF0FBECDBF7C
S1130960DF91CF910895DC01FB0141E050E060E0AC
S113097070E04D935D936D937C93139742E050E048
S113098060E070E014964D935D936D937C9317979C
S113099083E018968C93189784E019968C93199792
S11309A085E01A968C931A9786E01B968C9387E0C1
S11309B090E0A0E0B0E080839183A283B38384833A
S11309C09583A683B78380878187828783870895E9
S11309D00F931F93CF93DF93CDB7DEB7A4970FB6D2
S11309E0F894DEBF0FBECDBF0E94EF008E01075EFC
S11309F01F4F8CE0F80111928A95E9F7BE01635FFD
S1130A007F4FCE0101960E94B304CE0101960E944D
S1130A10E201CE010D960E94E201B80180E00E943D
S1130A203E0280E893E00E94670589E693E00E9415
S1130A306705CE0101960E94000286E793E00E94BA
S1130A406705C8010E94000280E893E00E946705E0
S1130A50B80181E00E943E028DE793E00E946705A1
S1130A6089E693E00E946705CE010D960E9400027C
S1130A7086E793E00E946705C8010E94000280E8AF
S1130A8093E00E946705A4960FB6F894DEBF0FBEEC
S1130A90CDBFDF91CF911F910F91089588E180938D
S1130AA0C10086E08093C2001092C5008CE0809360
S1130AB0C400E0ECF0E08081826080830895E0EC83
S1130AC0F0E0908195FFFDCF8093C6000895CF9309
S1130AD0DF93EC018881882331F021960E945F0521
S1130AE089918111FBCFDF91CF910895805D0E94A0
S1130AF05F0508954F925F926F927F928F929F92BB
S1130B00AF92BF92CF92DF92EF92FF92CF93DF9397
S1130B102B013C0120E03AEC4AE95BE30E94FD052D
S1130B2080E3820F0E945F05C9E0D0E00F2EC12C44
S1130B30FAECDF2EFAE9EF2EFBE3FF2EF02D0F2E59
S1130B40FAE08F2E912CA12CB12CF02DC701B60107
S1130B50A50194010E94FD0569017A01C301B20156
S1130B600E94FD05CA01B901A50194010E94FD0579
S1130B7080E3860F0E945F05219741F7DF91CF91B3
S1130B80FF90EF90DF90CF90BF90AF909F908F90A9
S1130B907F906F905F904F900895CF93C4E18AE067
S1130BA00E945F05C150D9F78DE00E945F05CF9187
S1130BB00895DB018F939F930E941F06BF91AF910D
S1130BC0A29F800D911DA39F900DB29F900D1124A3
S1130BD0089597FB072E16F4009407D077FD09D0EB
S1130BE00E94320607FC05D03EF4909581959F4FF4
S1130BF00895709561957F4F0895A1E21A2EAA1B5E
S1130C00BB1BFD010DC0AA1FBB1FEE1FFF1FA217B8
S1130C10B307E407F50720F0A21BB30BE40BF50BB5
S1130C20661F771F881F991F1A9469F7609570953E
S1130C30809590959B01AC01BD01CF0108950E9460
S1130C404606A59F900DB49F900DA49F800D911D05
S1130C5011240895B7FF0C941F060E941F06821BDF
S1130C60930B0895AA1BBB1B51E107C0AA1FBB1F0E
S1130C70A617B70710F0A61BB70B881F991F5A9524
S1130C80A9F780959095BC01CD010895A29FB0016C
S1130C90B39FC001A39F700D811D1124911DB29FAC
S1130CA0700D811D1124911D0895FC018827992739
S1130CB0E89421912032E9F3293010F02E30C8F362
S1130CC02B3241F02D3239F4689404C00E947C0622
S1130CD0820F911D219120532A30C0F31EF4909568
S1130CE081959F4F0895FB01DC018D91019080193E
S1130CF00110D9F3990B08957AE0979F902D879F5F
S10F0D00802D910D11240895F894FFCF6C
S1130D0C1D035245534554494E47205448452048E9
S1130D1C45414445520A0D00484541444552205230
S1130D2C455345540A0A0D00434C454152494E471C
S1130D3C2054484520454550524F4D2E2054484987
S1130D4C53204D494748542054414B45204120578A
S1130D5C48494C452121210A0D00454550524F4D1F
S1130D6C20434C4541524544210A0A0D0054455335
S1130D7C54494E473A20746573745F52575F776FCA
S1130D8C72640A0D004578706563746564206F7530
S1130D9C7470757420313233343A20005245414416
S1130DAC494E4720574F52443A20535543434553D9
S1130DBC530A0D0052454144494E4720574F524463
S1130DCC3A204641494C5552450A0D00474F543A76
S1130DDC20000A0D45585045435445443A203136B9
S1130DEC3930393036300A0D005445535420434FB2
S1130DFC4D504C455445443A20746573745F5257B6
S1130E0C5F776F72640A0A0D0054455354494E4778
S1130E1C3A20746573745F52575F627974650A0D76
S1130E2C004578706563746564206F7574707574AF
S1130E3C20343332313A200045787065637465642C
S1130E4C206F757470757420646362613A20005469
S1130E5C45535420434F4D504C455445443A20740B
S1130E6C6573745F52575F627974650A0A0D000AE0
S1130E7C0D232323232323232323232320475053CA
S1130E8C204441544120232323232323232323239A
S1130E9C23000A0D4C61747469747564653A2000FE
S1130EAC0A0D4C6F6E6769747564653A20000A0DFF
S1130EBC4D6F6E74683A20000A0D4461793A200033
S1130ECC0A0D486F75723A20000A0D4D696E7574DF
S1130EDC653A2000244750524D4300530057000AF2
S1130EEC0D5355434345535346554C4C5920524589
S1130EFC43454956454420475053204441544100EE
S1130F0C0A0D4641494C454420544F205245434513
S1130F1C49564520475053204441544100244750DE
S1130F2C524D432C3036343935312E3030302C413F
S1130F3C2C323330372E313235362C4E2C31323074
S1130F4C31362E343433382C452C302E30332C316E
S1130F5C36352E34382C3236303430362C332E3061
S1130F6C352C572C412A3243000A0D455850454321
S1130F7C5445443A20000A0D474F543A000A0A0DCE
S1130F8C2323232323232323232323232323232321
S1130F9C2323232323232323232323232323232311
S1110FAC23232323232323232323232323006C
S9030000FC
